:020000040800F2
:1000000070060020BD010008A5080008A10800082E
:10001000A3080008C302000801090008000000004E
:10002000000000000000000000000000A908000817
:10003000C502000800000000A7080008AB0800087F
:10004000D7010008D7010008D7010008D701000830
:10005000D7010008D7010008D7010008D701000820
:10006000D7010008D7010008D7010008D701000810
:10007000D7010008D7010008D7010008D701000800
:10008000D7010008D7010008D701000800000000D0
:10009000000000000000000000000000D701000880
:1000A000D7010008D7010008D7010008D7010008D0
:1000B000D7010008D7010008D7010008D7010008C0
:1000C000D7010008D7010008D7010008D7010008B0
:1000D000D7010008D7010008D7010008D7010008A0
:1000E000C7020008D7010008D7010008000000007F
:1000F0000000000000000000000000000000000000
:1001000000000000000000000000000000000000EF
:100110000000000000000000D7010008D70100081F
:1001200000F002F800F03AF80AA090E8000C8244CF
:100130008344AAF10107DA4501D100F02FF8AFF2AC
:10014000090EBAE80F0013F0010F18BFFB1A43F0B5
:10015000010318470808000028080000103A24BFCF
:1001600078C878C1FAD8520724BF30C830C144BF1C
:1001700004680C607047000000230024002500265E
:10018000103A28BF78C1FBD8520728BF30C148BFFA
:100190000B6070471FB51FBD10B510BD00F058F8BB
:1001A0001146FFF7F7FF00F0BCFB00F076F803B450
:1001B000FFF7F2FF03BC00F07DF80000094880471C
:1001C00009480047FEE7FEE7FEE7FEE7FEE7FEE739
:1001D000FEE7FEE7FEE7FEE704480549054A064B51
:1001E00070470000FF08000821010008700000208F
:1001F0007006002070020020700200204FF0000204
:1002000000B5134694469646203922BFA0E80C500C
:10021000A0E80C50B1F12001BFF4F7AF090728BFE7
:10022000A0E80C5048BF0CC05DF804EB890028BF63
:1002300040F8042B08BF704748BF20F8022B11F08C
:10024000804F18BF00F8012B704770477047704708
:10025000754600F02BF8AE4605006946534620F07F
:100260000700854618B020B5FFF7B6FFBDE820406F
:100270004FF000064FF000074FF000084FF0000B62
:1002800021F00701AC46ACE8C009ACE8C009ACE815
:10029000C009ACE8C0098D46704710B50446AFF3FD
:1002A00000802046BDE81040FFF781BF004870473E
:1002B0001000002001491820ABBEFEE72600020016
:1002C0007047FEE770474FF4805000F00DB8000013
:1002D000B0F5805F04D14FF40051024800F010B82F
:1002E0007047000000100140044910B50A6802423E
:1002F00002D00860FFF7ECFF10BD000014040140BD
:10030000C26821EA02030A4043EA024101617047E0
:1003100001488068704700000000002002488168A2
:1003200002781144816070470000002010B503205E
:1003300000F066F80F2000F005F800F023F8002028
:1003400010BD000070B50D4D04464FF47A71287849
:10035000B1FBF0F00A490968B1FBF0F000F08CFA4B
:1003600048B9102C07D200222146501E00F028F870
:1003700000206C6070BD012070BD000000000020F6
:100380000C0000200C4808B5816941F00101816131
:10039000816901F001010091C16941F08051C161A1
:1003A000C06900F0805000900448416821F0E0618D
:1003B00041F00071416008BD0010024000000140A2
:1003C000F0B40E4B1B680C46C3F30223C3F10705C0
:1003D000042D00D90425191D072901D2002300E0AE
:1003E000DB1E012606FA05F1491E214099409E4078
:1003F000761E16403143F0BC00F083BA0CED00E0ED
:10040000064900F0070208684FF6FF03184040EA6B
:100410000220034A10430860704700000CED00E022
:100420000000FA052DE9F041050027D02868334C7B
:10043000810712D5400703D5606840F4E060606032
:100440002878000703D5606840F4605060606068F9
:10045000A96820F0F000084360602878C00729D020
:100460006868012804D02168022804D0890703E0C5
:100470002168890300E08901002902DB0120BDE831
:10048000F081616821F0030101436160FFF740FFE3
:10049000064641F2883706E0FFF73AFF801BB84274
:1004A00001D90320EBE76068696800F00C00B0EB4D
:1004B000810FF1D12878400705D56068E96820F4FC
:1004C000E060084360602878000706D56068296905
:1004D00020F4605040EAC100606000F017F86168E5
:1004E000074AC1F30311515CC84006490860064839
:1004F0000068FFF727FF0020C1E70000001002405E
:100500004C0900080C000020040000200E4A51682D
:100510000E4801F00C03042B11D0082B0FD10C480E
:10052000C1F38343C903C05C0AD5D16A084A01F00C
:100530000F011032515C054A5043B0FBF1F0704797
:1005400004494843704700000010024000127A003E
:100550002C09000800093D002DE9F84F040070D077
:100560002078C04DC00749D06868C0F381000128D9
:1005700007D06868C0F38100022809D16868C00309
:1005800006D52868800339D560680028E7D035E0B3
:100590006068B0F5803F0BD010B1B0F5A02F11D03E
:1005A000286820F480302860286820F4802002E049
:1005B000286840F480302860606890B1FFF7A8FE9A
:1005C00006460AE0286840F480202860F0E700BF73
:1005D000FFF79EFE801B642873D828688003F7D538
:1005E0000CE0FFF795FE064605E000BFFFF790FE22
:1005F000801B6428F0D828688003F7D420789A4EAE
:1006000080074FF001094FF0000839D5686810F0F5
:100610000C0F07D06868C0F38100022809D1686810
:10062000C00306D42868800714D52069012808D1A2
:1006300010E02069B0B1C6F80090FFF769FE0746E8
:1006400005E00AE1FFF764FEC01B0228C4D8286851
:100650008007F7D52868616920F0F80040EAC100FA
:1006600028600DE0C6F80080FFF752FE074604E060
:10067000FFF74EFEC01B022823D828688007F7D456
:10068000207800072CD57948A169D9B1C0F800902D
:10069000FFF73EFE074604E0FFF73AFEC01B0228C4
:1006A0000FD8686A8007F7D571484FF4FA5100688F
:1006B000B0FBF1F0009000BF0098411E0091FAD20B
:1006C0000EE080E0C0F80080FFF722FE074604E05D
:1006D000FFF71EFEC01B022875D8686A8007F7D492
:1006E0002078400760D5E8690027C00008D4E86991
:1006F00040F08050E861E869012700F080500090E8
:100700005C480168C90513D40168834641F48071CF
:100710000160FFF7FDFD824606E000BFFFF7F8FD30
:10072000A0EB0A0064284ED8DBF80000C005F5D520
:10073000E06801280AD008B1052813D0286A20F003
:1007400001002862286A20F0040002E0286A40F0D4
:1007500001002862E06841F2883B98B1FFF7D8FDBC
:1007600082460BE0286A40F004002862EEE700BFF2
:10077000FFF7CEFDA0EB0A0159455AD8286A800739
:10078000F6D50CE0FFF7C4FD824605E0FFF7C0FD9B
:10079000A0EB0A0159454CD8286A8007F6D41FB14E
:1007A000E86920F08050E861E06988B36968C1F3C6
:1007B0008101022944D00228C6F8608004D0FFF7E6
:1007C000A7FD044638E034E0FFF7A2FD074604E049
:1007D000FFF79EFDC01B02282BD828688001F7D4A4
:1007E000206AB0F5803F05D1E86AA16820F00F00CB
:1007F0000843E862D4E908010843696821F47411E8
:1008000008436860C6F86090FFF782FD044606E082
:1008100025E000BFFFF77CFD001B022809D82868EF
:100820008001F7D51BE000BFFFF772FD001B022817
:1008300002D90320BDE8F88F28688001F4D40EE0C7
:100840000128F7D06868226A00F48031914204D10F
:10085000616A00F47010884201D00120EAE70020AC
:10086000E8E70000001002400000424280044242DB
:100870000C0000200070004010B5401EB0F1807FD9
:1008800001D3012010BD4FF0E02460610F216017FB
:1008900000F037F80020A06107202061002010BD83
:1008A000FEE7FEE7FEE770477047FFF737BD10B57C
:1008B00090B028216846FFF7A1FC14210AA8FFF791
:1008C0009DFC02200090012004901020002405903F
:1008D00007946846FFF740FE08B172B6FEE70F20A6
:1008E000CDE90A040C940D9400210AA80E94FFF798
:1008F00099FD002801D072B6FEE710B010BD704718
:10090000FEE70907090E002804DB00F1E02080F86B
:100910000014704700F00F0000F1E02080F8141D73
:100920007047FFF703FDFFF7C2FFFEE70203040570
:10093000060708090A0B0C0D0E0F10100102030424
:1009400005060708090A0B0C0D0E0F100000000029
:100950000000000001020304060708097C090008E2
:1009600000000020100000005C0100088C09000855
:10097000100000206006000078010008010000005F
:0C098000100000000000000000127A00CF
:0400000508000121CD
:00000001FF
